:020000040000FA
:040000001AEF00F003
:020004000000FA
:0200080014D012
:08001800D8CF81F0E8CF80F0A1
:10002000E0CF82F082C0E0FF80C0E8FF81C0D8FF4F
:1000300010001100806A896AC10E926E816A8A6A14
:10004000CF0E936E826A8B6ACC0E946EFF0ECB6ECF
:10005000800EBE6EBD8ABD8894947F0ECA6ECE0E91
:10006000C16EC10EC26EFF0E006E002EFED7C2849E
:10007000C2B4FED7C350016EC450026E030E0260BC
:1000800001D0EDD7EB0E016001D002D0828001D00B
:100090008290FB0E016001D004D0828ABD86BD84AF
:0C00A00003D0829ABD96BD942FEF00F0B3
:020000040030CA
:0100010021DD
:0200000400F00A
:1000000054657374204461746100010203040500A7
:00000001FF
