:020000040000FA
:040000001AEF00F003
:020004000000FA
:0200080014D012
:08001800D8CF81F0E8CF80F0A1
:10002000E0CF82F082C0E0FF80C0E8FF81C0D8FF4F
:1000300010001100806A896A0B0E926E816A8A6ACA
:10004000CF0E936E826A8B6ACC0E946EFF0ECB6ECF
:10005000800EBE6EBD8ABD8894947F0ECA6EC40E9B
:10006000C16EC10EC26E800E006E002EFED7C2841D
:10007000C2B4FED7C350016EC450026EC90EC26E28
:10008000800E006E002EFED7C284C2B4FED7C350CD
:10009000036EC450046ED90EC26E800E006E002E28
:1000A000FED7C284C2B4FED7C350056EC450066EDC
:1000B0000450026001D00BD00350016001D007D082
:1000C0008280BD86BD8403D08290BD96BD94020E11
:1000D0000664C7D7790E0564C4D7800E055C076E29
:0800E0000744BE6E31EF00F091
:020000040030CA
:0100010021DD
:0200000400F00A
:1000000054657374204461746100010203040500A7
:00000001FF
